:100000000C94D0050C94F8050C94F8050C94F805A4
:100010000C94F8050C94F8050C94F8050C94F8056C
:100020000C94F8050C94F8050C946B0C0C94DA0CF9
:100030000C94F8050C94F8050C94F8050C94F8054C
:100040000C94F8050C94F8050C94F8050C94F8053C
:100050000C94F8050C94F8050C94F8050C94210CFC
:100060000C94F8050C94F8050C94F8050C94F8051C
:100070000C94F8050C94F8050C94F8050C94F8050C
:100080000C94F8050C94F8050C94F8050C94F805FC
:100090000C94F8050C94F8050C94F8050C94F805EC
:1000A0000C94F8050C94F8050C94F8050000000079
:1000B000003E5B4F5B3E3E6B4F6B3E1C3E7C3E1CEE
:1000C000183C7E3C181C577D571C1C5E7F5E1C0034
:1000D000183C1800FFE7C3E7FF0018241800FFE7EB
:1000E000DBE7FF30483A060E2629792926407F05AE
:1000F0000507407F05253F5A3CE73C5A7F3E1C1CC4
:1001000008081C1C3E7F14227F22145F5F005F5F83
:1001100006097F017F006689956A6060606060946F
:10012000A2FFA29408047E040810207E2010080874
:100130002A1C08081C2A08081E101010100C1E0C7F
:100140001E0C30383E3830060E3E0E060000000011
:100150000000005F00000007000700147F147F14F8
:10016000242A7F2A1223130864623649562050003D
:1001700008070300001C2241000041221C002A1C29
:100180007F1C2A08083E0808008070300008080814
:100190000808000060600020100804023E51494534
:1001A0003E00427F400072494949462141494D3352
:1001B0001814127F1027454545393C4A49493141B9
:1001C000211109073649494936464949291E000087
:1001D00014000000403400000008142241141414DC
:1001E0001414004122140802015909063E415D59C8
:1001F0004E7C1211127C7F494949363E41414122D1
:100200007F4141413E7F494949417F090909013EFA
:10021000414151737F0808087F00417F4100204021
:10022000413F017F081422417F404040407F021C33
:10023000027F7F0408107F3E4141413E7F0909094A
:10024000063E4151215E7F09192946264949493216
:1002500003017F01033F4040403F1F2040201F3FDC
:100260004038403F63140814630304780403615961
:10027000494D43007F4141410204081020004141A3
:10028000417F04020102044040404040000307084F
:100290000020545478407F2844443838444444284B
:1002A000384444287F385454541800087E090218F2
:1002B000A4A49C787F0804047800447D400020407A
:1002C000403D007F1028440000417F40007C0478BE
:1002D00004787C080404783844444438FC18242406
:1002E0001818242418FC7C08040408485454542486
:1002F00004043F44243C4040207C1C2040201C3C03
:100300004030403C44281028444C9090907C4464F9
:10031000544C44000836410000007700000041368C
:10032000080002010204023C2623263C1EA1A16112
:10033000123A4040207A3854545559215555794144
:100340002154547841215554784020545579400C1B
:100350001E527212395555555939545454593955FC
:100360005454580000457C410002457D420001453F
:100370007C40F0292429F0F0282528F07C545545AC
:10038000002054547C547C0A097F4932494949323F
:100390003248484832324A4848303A4141217A3A54
:1003A00042402078009DA0A07D39444444393D401E
:1003B00040403D3C24FF2424487E4943662B2FFCCB
:1003C0002F2BFF0929F620C0887E09032054547979
:1003D000410000447D413048484A32384040227A4A
:1003E000007A0A0A727D0D19317D2629292F2826C7
:1003F0002929292630484D402038080808080808CF
:100400000808382F10C8ACBA2F102834FA00007B27
:10041000000008142A142222142A1408950022002D
:1004200095AA005500AAAA55AA55AA000000FF00E7
:10043000101010FF00141414FF001010FF00FF1024
:1004400010F010F0141414FC001414F700FF000056
:10045000FF00FF1414F404FC141417101F10101FD5
:10046000101F1414141F00101010F0000000001FC3
:10047000101010101F10101010F010000000FF10CE
:100480001010101010101010FF10000000FF1400CA
:1004900000FF00FF00001F10170000FC04F41414FC
:1004A0001710171414F404F40000FF00F7141414C8
:1004B00014141414F700F7141414171410101F1048
:1004C0001F141414F4141010F010F000001F101F6B
:1004D0000000001F14000000FC140000F010F010D9
:1004E00010FF10FF141414FF141010101F00000050
:1004F00000F010FFFFFFFFFFF0F0F0F0F0FFFFFF54
:100500000000000000FFFF0F0F0F0F0F38444438AA
:10051000447C2A2A3E147E02020606027E027E02E5
:1005200063554941633844443C04407E201E200604
:10053000027E020299A5E7A5991C2A492A1C4C7241
:1005400001724C304A4D4D303048784830BC625AC8
:10055000463D3E494949007E0101017E2A2A2A2A58
:100560002A44445F444440514A444040444A514034
:100570000000FF0103E080FF000008086B6B0836F5
:1005800012362436060F090F060000181800000066
:100590001010003040FF0101001F01011E00191D55
:1005A0001712003C3C3C3C0000000000080B00021D
:1005B00002020000090400000102020000052400FC
:1005C000100105240101010424020605240600018E
:1005D0000705810310004009040100020A00000021
:1005E00007050202400000070583024000000403E3
:1005F000090412010002EF0201404123368000018C
:100600000102030141726475696E6F204C4C430016
:1006100041726475696E6F204C656F6E6172646FB4
:1006200000F0F89C8E8783878E9CF8F00000FEFF18
:100630000303030303070EFCF80000FEFF0303039C
:100640000303070EFCF80000FFFF0000000000009D
:1006500000FFFF0000FEFF8383838383C7EE7C38A7
:100660000000F8FC0E07030303070EFCF800003F30
:100670007FE0C08080C0E07F3FFFFF0101010101FA
:100680000101FFFF0000FFFF0C0C0C0C1C3E77E388
:10069000C100007FFFC0C0C0C0C0E0703F1F0000AD
:1006A0001F3F70E0C0C0C0E0703F1F00007FFFC16F
:1006B000C1C1C1C1E3773E1C00001F3F70E0C0C054
:1006C000C0E0703F1F000000000001FFFF010000BC
:1006D00000D5F08D14A1C881CFD9F1AF2000000062
:1006E000000000000000000000000000000000000A
:1006F00000000000000000000000000000000000FA
:1007000000000000000000000000000000000000E9
:1007100000000000000000000000000000000000D9
:1007200000000000000000000000000000000000C9
:1007300000000000000000000000000000000000B9
:1007400000000000000000000000000000000000A9
:100750000000000000000000000000000000000099
:10076000000000000000000000000000000000FC8D
:10077000FCFCFC3C3C3CFCFCF0F0C0C00000000079
:100780003C3C3CFCFCFCFC3C3C3C00000000F0F829
:10079000FCFC7C3C3C3C3C3C3C3C00000000FCFC49
:1007A000FCFCF8F0E0F0F8FCFCFCFC00000000E0D1
:1007B000F0F8FCFC7C7CFCFCF8F0E000000000FCA5
:1007C000FCFCFCF8E0C00000FCFCFCFC00000000AD
:1007D0000000000000000000000000000000000019
:1007E000000000000000000000000000000000FF0A
:1007F000FFFFFF000000C0C0FFFFFFFF0000000080
:10080000000000FFFFFFFF00000000000000FFFFEE
:10081000FFFF80003C3CFCFCFCFC00000000FFFFF4
:10082000FFFF03070F0703FFFFFFFF00000000FFAC
:10083000FFFFFF78787878FFFFFFFF00000000FFE0
:10084000FFFFFF0F3FFFFFFEFFFFFFFF0000000065
:100850000000000000000000000000000000000098
:100860000000000000000000000000000000000F79
:100870000F0F0F0F0F0F0F0F0303000000000000FA
:100880000F0F0F0F0F0F0F0F0F0F000000000107CA
:100890000F0F0F0F0F0F0F0F0F0F000000000F0FA4
:1008A0000F0F00000000000F0F0F0F000000000FDF
:1008B0000F0F0F000000000F0F0F0F000000000FC0
:1008C0000F0F0F00000001070F0F0F0F00000000B7
:1008D0000000000000000000000000000000000018
:1008E0000000000000000000000000000000000008
:1008F00000000000000000000000000000000000F8
:1009000000000000000000000000000000000000E7
:1009100000000000000000000000000000000000D7
:1009200000000000000000000000000000000000C7
:1009300000000000000000000000000000000000B7
:1009400000000000000000000000000000000000A7
:100950000000000000000000000000000000000097
:100960000000000000000000000000000000000087
:100970000000000000000000000000000000000077
:100980000000000000000000000000000000000067
:100990000000000000000000000000000000000057
:1009A0000000000000000000000000000000000047
:1009B0000000000000000000000000000000000037
:1009C0000000000000000000000000000000000027
:1009D0000000000000000000000000000000000017
:1009E0000000000000000000000000000000000007
:1009F00000000000000000000000000000000000F7
:100A000000000000000000000000000000000000E6
:100A100000000000000000000000000000000000D6
:100A200000000000000000000000000000000000C6
:100A300000000000000000000000000000000000B6
:100A400000000000000000000000000000000000A6
:100A50000000000000000000000000000000000096
:100A60000000000000000000000000000000000086
:100A70000000000000000000000000000000000076
:100A80000000000000000000000000000000000066
:100A90000000000000000000000000000000000056
:100AA0000000000000000000000000000000000046
:100AB0000000000000000000000000000000000036
:100AC0000000000000000000000000000000000026
:100AD0000000000000000000000000000000FE9B7D
:100AE000ADED7F7DE7E3371D7BFE070F090B0E0C95
:100AF0000E0F0B090F070030489C5C3C3C549C488F
:100B000030000000000001020201000000000000AF
:100B100000F8F40A0AF4F8000000000000010205E1
:100B200005020100000000000000F0F8E8F00000FD
:100B30000000000000000001010000000000002093
:100B4000A8A8880010B8EC600000000000000000B9
:100B500000010000000000F8040202C22212020498
:100B6000F80000010204040504040402010000C8A6
:100B700050E214F8F814E250C80000040201020721
:100B800007020102040000001C225DC1C15D22DCDD
:100B9000E0E0000000020F07070F030100003F0F15
:100BA00011241FBECFEFDAE0DEBFCDBF11E0A0E021
:100BB000B1E0E4E1FCE202C005900D92A838B10773
:100BC000D9F726E0A8E8B1E001C01D92A639B20726
:100BD000E1F715E0C0EDD5E004C02197FE010E94C9
:100BE0000216CF3CD107C9F70E94720F0C94081669
:100BF0000C9400002F923F924F925F926F927F92DF
:100C00008F929F92AF92BF92CF92DF92EF92FF921C
:100C10000F931F93CF93DF93A22EB12C9501280F32
:100C2000391F121613060CF09DC0803891050CF088
:100C300099C09B01200F311D121613060CF092C0B3
:100C4000603471050CF08EC09B0177FF04C0222731
:100C50003327261B370B27703327DB0177FD1796C9
:100C6000E3E0B595A795EA95E1F777FF07C01197FF
:100C700068E070E0FB01E21BF30B9F01E02EE694BD
:100C8000E694E694F12C077019F0FFEFEF1AFF0AD3
:100C90008A01AD015695542F442757954795480F23
:100CA000591F465C5D4FBD01E8E0F0E02F01421A9C
:100CB000530A6F3FEFEF7E070CF444C06C01D0E0A5
:100CC000C0E03A01E0E86E0E711CD7FC2FC06F3F08
:100CD000760709F45AC0F801EC0FFD1FE4914A01B0
:100CE0008C0E9D1EF0E01F01022E01C0220C0A9402
:100CF000EAF7F40130802328208221153105B1F074
:100D00006730710599F0F801EC0FFD1FE491430184
:100D10008C0E9D1EF0E01F01042C02C03594279418
:100D20000A94E2F7F4013080232820822196FFEF15
:100D3000CF1ADF0ACA15DB052CF4F0E8CF16D10470
:100D400009F0C3CF6F5F7F4F0A0D1B1D40585F4FE7
:100D5000FB01EA1BFB0BEE15FF0524F4683071055F
:100D600009F0A7CFDF91CF911F910F91FF90EF90E6
:100D7000DF90CF90BF90AF909F908F907F906F90BB
:100D80005F904F903F902F9008952115310509F005
:100D9000BACFCCCF9C01255F3F4F2B38310588F56A
:100DA000AC0197FF02C050E040E00C9681389105FD
:100DB00014F080E890E0841BFB01E770FF2721E03E
:100DC00030E001C0220FEA95EAF7209577FF02C0D4
:100DD000695F7F4FFB0193E0F595E7959A95E1F701
:100DE000F695FE2FEE27F795E795E40FF51FE65CE5
:100DF000FD4F815030F09191DF01119792239C9328
:100E0000F8CF0895EAE3F2E0A0E0B8E000800EBC7D
:100E10008111012C1197A0FDFDCF0192B9F70DB4FE
:100E20000895FC0180913902882311F13FB7F894AD
:100E300082E08093E9002091F200822F90E0181662
:100E4000190614F481E090E0882339F0289844E6EC
:100E5000409338024091F1004083222339F02091E1
:100E6000F200211103C02BE62093E8003FBF089554
:100E70008FEF9FEF08952FB7F89483E08093E900F8
:100E80009091E800892F807295FF04C09091F20044
:100E900080E4891B2FBF08958091300281110DC01D
:100EA00082E080932C0284E080932D0210922F0226
:100EB00010922E0281E0809330028CE292E008953D
:100EC0003FB7F8948091280290912902A0912A02BC
:100ED000B0912B0226B5A89B05C02F3F19F00196B3
:100EE000A11DB11D3FBFBA2FA92F982F8827BC0184
:100EF000CD01620F711D811D911D42E0660F771FAC
:100F0000881F991F4A95D1F708958F929F92AF92AB
:100F1000BF92CF92DF92EF92FF926B017C010E9411
:100F200060074B015C01C114D104E104F104B9F084
:100F30000E946007681979098A099B09683E734015
:100F40008105910580F321E0C21AD108E108F1087A
:100F500088EE880E83E0981EA11CB11CE4CFFF90A0
:100F6000EF90DF90CF90BF90AF909F908F900895BB
:100F70002FB7F89460912402709125028091260287
:100F8000909127022FBF089540918E0150918F01BB
:100F900020918C0130918D0142175307B4F4909148
:100FA000E8009570E1F39091E80092FD19C08093FC
:100FB000F10080918E0190918F0101968F73992796
:100FC000892B19F48EEF8093E80080918E01909127
:100FD0008F01019690938F0180938E0181E0089597
:100FE00080E00895DF92EF92FF920F931F93CF93CB
:100FF000DF93D82E8A01EB017B01E40EF51ECE159E
:10100000DF0559F0D7FE12C0FE0184910E94C4078B
:1010100021968111F4CF0FEF1FEFC801DF91CF911F
:101020001F910F91FF90EF90DF9008958881EECF90
:101030000F931F93CF93DF931F92CDB7DEB782E05C
:10104000898342E450E06CEA75E080E80E94F20790
:101050000E944C07DC0112960D911C91011511059F
:1010600089F0D801ED91FC910280F381E02DBE0161
:101070006F5F7F4FC801099597FD04C0F801008597
:101080001185ECCF89810F90DF91CF911F910F9146
:101090000895615030F02091F100FC012083019609
:1010A000F8CF289884E6809338020895AF92BF92D3
:1010B000CF92DF92EF92FF920F931F93CF93DF9324
:1010C0006C017B018B01040F151FEB015E01AE1853
:1010D000BF08C017D10759F06991D601ED91FC9175
:1010E0000190F081E02DC6010995892B79F7C501A2
:1010F000DF91CF911F910F91FF90EF90DF90CF90F4
:10110000BF90AF9008958F929F92AF92BF92CF926F
:10111000DF92EF92FF920F931F93CF93DF936C01B7
:101120007B018A0180910B01882309F45CC08091C6
:101130003902882309F457C08091920180FF05C0CD
:101140008091E00082608093E000E801B12C8AEF9A
:10115000A82E93E0892E2AE3922E209711F4BB202B
:10116000D9F10E943B0781110AC0AA94AA20D9F1A3
:1011700061E070E080E090E00E948507EECF8C1780
:101180001D0611F00CF08C2F9FB7F8948092E900A7
:101190002091E80025FD02C09FBFDFCF282F30E05F
:1011A000C21BD30BF701815020F041914093F10015
:1011B000FACFE20EF31EBB2021F09092E800B12C92
:1011C000EBCF8091E80085FDE7CF9092E800BB244B
:1011D000B394209709F3F3CF5D9884E6809391014F
:1011E000101611063CF081E090E0F60193838283B3
:1011F00010E000E0C801DF91CF911F910F91FF90A7
:10120000EF90DF90CF90BF90AF909F908F90089518
:10121000CF93DF931F92CDB7DEB76983DC01ED91E9
:10122000FC910280F381E02D41E050E0BE016F5F50
:101230007F4F09950F90DF91CF91089583E08093C0
:10124000E9008091F200882319F08AE38093E80096
:1012500008950E943B0790E00895CF93DF931F927B
:10126000CDB7DEB7FC018485958597FD08C02FEFCB
:101270003FEF358724870F90DF91CF910895CE01FE
:1012800001960E941107019719F4898190E0F3CF2C
:101290008FEF9FEFF0CF0F931F93CF93DF931F92AA
:1012A000CDB7DEB78C01FC018485958597FF0BC017
:1012B000CE0101960E941107019771F4898190E097
:1012C000F80195878487F801848595850F90DF91D3
:1012D000CF911F910F9108958FEF9FEFF1CFFC01F8
:1012E0008485958597FD0BC09FB7F89482E0809325
:1012F000E9008091F2009FBF90E0019608959FB7AA
:10130000F89482E08093E9008091F2009FBF90E022
:1013100008952D9A0895BC0190E080E00C94850713
:101320008FB18095807F669B88601C9B8460089548
:1013300020E191E061FD94E060FD990F62FD9295DE
:10134000687F269FD0011124A80FA65CBD4F8C9109
:1013500040FF03C0892B8C93089590958923FBCF80
:10136000EF92FF920F931F93CF93DF937C018B013A
:10137000040F111DEB0177FF02C0D0E0C0E0C801EF
:101380000134110514F080E490E0C817D9075CF42B
:1013900080E8E816F10428F440E0BE01C7010E948D
:1013A00098092196ECCFDF91CF911F910F91FF907B
:1013B000EF900895EF92FF920F931F93CF93DF93D7
:1013C000EC017C01E60EF11CCE15DF058CF410E07B
:1013D00000E0C038D1052CF440E0B801CE010E94F5
:1013E00098090F5F1F4F0830110599F72196ECCF30
:1013F000DF91CF911F910F91FF90EF90089580E0C2
:10140000EAE3F2E081118FEF0024819381938193CD
:1014100081930394D1F710921A021092190210923C
:101420001C0210921B0208958F929F92AF92BF925E
:10143000CF92DF92EF92FF920F931F93CF93DF93A0
:101440006D3089F0C0901902D0901A026A30D1F440
:1014500010921C0210921B0288E0C80ED11CD09280
:101460001A02C092190281E090E0DF91CF911F91A2
:101470000F91FF90EF90DF90CF90BF90AF909F9033
:101480008F90089500911B0210911C02E5E06E9F61
:10149000E0011124C455DF4F5801F12CF5E0E12C97
:1014A000FF1629F0CE010196FE01E490EC01912C8B
:1014B000812CF0E8AF16B10458F4B601680D791D1F
:1014C0006034710528F44E2D4170C5010E949809C1
:1014D000E6948FEF881A980AE8E08E16910449F78F
:1014E000F394FFEFAF1ABF0A86E0F812D7CF0A5F76
:1014F0001F4F10931C0200931B02B5CFCF93C82F30
:101500000E949009982F9C2381E09C1380E0CF914A
:10151000089580E00C9402078F929F92AF92BF9241
:10152000CF92DF92EF92FF920F931F93CF93DF93AF
:10153000EC010E94B8076B017C010E94B8078B0187
:101540009C01409188015091890160918A017091BC
:101550008B0180919D0190919E01A0919F01B0917E
:10156000A00188579C4EAF4FBF4F46015701841AC8
:10157000950AA60AB70AB501A401081719072A0790
:101580003B0790F4463951056105710590F4DF91F0
:10159000CF911F910F91FF90EF90DF90CF90BF9070
:1015A000AF909F908F9008954A3F51056105710556
:1015B00070F380918C0690918D068C0F9D1F9C017D
:1015C000215031092337310520F490938D06809303
:1015D0008C06C0928801D0928901E0928A01F09233
:1015E0008B01D5CF089590E080E008958F929F926F
:1015F000AF92BF920F931F93CF93DF93CDB7DEB718
:10160000A1970FB6F894DEBF0FBECDBF19A242302E
:1016100008F44AE08E010F5D1F4F842E912CB12CEF
:10162000A12CA50194010E94D115E62FB901CA0190
:10163000EA3044F5E05DD801EE938D01232B242B95
:10164000252B79F790E080E0109769F0FD0101907B
:101650000020E9F73197AF014A1B5B0BBD0182E91E
:1016600096E00E945608A1960FB6F894DEBF0FBE12
:10167000CDBFDF91CF911F910F91BF90AF909F9001
:101680008F900895E95CD7CFCF92DF92EF92FF92CF
:10169000CF93DF936B017C016DE282E996E00E94BB
:1016A000140AEC0166277727CB016C197D098E0996
:1016B0009F094AE00E94F60A8C0F9D1FDF91CF918F
:1016C000FF90EF90DF90CF900895FC0101900020F3
:1016D000E9F73197AF01481B590BBC0182E996E04D
:1016E0000C945608BC01990F880B990B97FD0C942C
:1016F000440B4AE00C94F60A0C9489150E943115AB
:1017000024E630E040E050E00E949F156F5F7F4F7D
:101710008F4F9F4F6230710524F16230710591F453
:101720000E94311521E330E040E050E00E949F1517
:101730006F5F7F4F8F4F9F4F6A317105ACF086E02E
:1017400090E008956C34710594F06B35710594F058
:101750006336710594F06336710591F08FEF9FEF5A
:1017600008958EEF9FEF089585E090E0089590E052
:1017700080E0089581E090E008958AE090E0089587
:1017800084E690E00895CF92DF92EF92FF920F935C
:101790001F93CF93DF9335E0C32E32E0D32E41EA7F
:1017A000E42E41E0F42EC8E1D0E080918E069091C5
:1017B0008F068C0F9D1FF601819391936F0110E0AE
:1017C00000E00E947E0BF801EE0FFF1FEE0DFF1DE3
:1017D000918380830F5F1F4F0A30110591F72C967C
:1017E000F4E1EF0EF11CC435D105F9F61092200298
:1017F00010921F0210921E020E94B8076093990176
:1018000070939A0180939B0190939C0180E395E7EC
:10181000A0E0B0E080930D0190930E01A0930F0122
:10182000B093100181E090E0909322028093210216
:10183000DF91CF911F910F91FF90EF90DF90CF90AC
:1018400008951F920F920FB60F9211242F933F937A
:101850008F939F93AF93BF93809124029091250221
:10186000A0912602B09127023091230223E0230F9A
:101870002D3758F50196A11DB11D209323028093A9
:10188000240290932502A0932602B0932702809110
:10189000280290912902A0912A02B0912B02019670
:1018A000A11DB11D8093280290932902A0932A02C2
:1018B000B0932B02BF91AF919F918F913F912F9148
:1018C0000F900FBE0F901F90189526E8230F0296D9
:1018D000A11DB11DD2CF1F920F920FB60F921124EE
:1018E0008F939F938091E1009091E100937F90937B
:1018F000E10083FF0FC01092E90091E09093EB00AC
:101900001092EC0092E39093ED001092390298E06F
:101910009093F00082FF22C093E09093E9009091B1
:10192000F200992319F09AE39093E80090919101C5
:10193000992341F0909191019150909391019111CF
:1019400001C05D9A90913802992341F0909138023C
:10195000915090933802911101C0289A84FF18C0C9
:101960008091E2008E7E81608093E2008091E100B0
:101970008F7E8093E100809192018E7E80618093C2
:1019800092019F918F910F900FBE0F901F9018950D
:1019900080FFF7CF8091E2008E7E80618093E2002D
:1019A0008091E1008E7E8093E100809192018E7E95
:1019B0008160E5CF1F920F920FB60F921124CF9244
:1019C000DF92EF92FF920F931F932F933F934F93CA
:1019D0005F936F937F938F939F93AF93BF93EF9397
:1019E000FF93CF93DF93CDB7DEB76C97DEBFCDBF4C
:1019F0001092E9008091E80083FF25C068E0CE01E5
:101A000045960E94490882EF8093E8008D8987FF00
:101A100039C09091E80090FFFCCF982F907609F0A4
:101A200034C19E894F89588D2F89F88C911131C00E
:101A3000803861F5809193018093F1001092F1005C
:101A40008EEF8093E8006C960FB6F894DEBF0FBE61
:101A5000CDBFDF91CF91FF91EF91BF91AF919F915A
:101A60008F917F916F915F914F913F912F911F9136
:101A70000F91FF90EF90DF90CF900F900FBE0F90DF
:101A80001F9018959EEF9093E800C7CF1092F10039
:101A9000D5CF913059F48111D3CF4130510581F622
:101AA000809193018D7F80939301CACF933049F445
:101AB0008111C6CF4130510519F6809193018260A2
:101AC000F2CF953041F48091E80080FFFCCF206890
:101AD0002093E300B5CF963009F0A9C00B8D1C8D83
:101AE00022E01092E90010928F0110928E01F21202
:101AF0002EC010928D0110928C010E9418081F8236
:101B000099E09983FA8291E09E8390EA98879AEF10
:101B1000998720918E0130918F01275F3F4F3C8341
:101B20002B838D831092E90010928F0110928E0109
:101B300010938D0100938C0149E050E0BE016F5F6E
:101B40007F4F80E00E94F2070E94180879CF10931F
:101B50008D0100938C010E944C07DC0112960D91BF
:101B60001C910115110509F451C1D801ED91FC91A9
:101B70000480F581E02DBE016B5E7F4FC8010995A1
:101B8000009709F03EC1F80100851185EACFF3E026
:101B9000FF120EC08F89882309F440C0823061F49F
:101BA00040E860E180E196E00E940C0F811148CF8F
:101BB00081E28093EB0047CF813029F440E86BE06D
:101BC00084E096E0F1CF833099F70E944C07DC0166
:101BD0001296ED90FC908E010F5F1F4F6801E1148B
:101BE000F10479F0D701ED91FC910680F781E02DA9
:101BF000B801C7010995080F111DF701E084F184B0
:101C0000EECFD8011C92F60101900020E9F7319740
:101C1000BF016C197D0940E0C601C6CF6EEE75E0CC
:101C2000FB01449150E080E80E94F20709CF973011
:101C300009F4BECF983021F481E08093F10000CF09
:101C4000993009F0FDCE837009F0B2CFE6E1F1E002
:101C500081E031E096E32191222371F08093E90045
:101C60003093EB00DF0111972C912093EC009093BF
:101C7000ED008F5F873079F78EE78093EA0010924E
:101C8000EA008F8980933902DBCE8B8D9C8D109278
:101C9000E90010928F0110928E0190938D01809334
:101CA0008C01898D811192C08E899D89913A49F468
:101CB000813209F07DCF47E050E064E071E080E0E0
:101CC000B3CF913209F074CF833269F48F89988D44
:101CD000B0E0A0E08093000190930101A093020185
:101CE000B0930301ADCE803269F48091E80082FFA9
:101CF000FCCF67E084E091E00E9449088BEF80937D
:101D0000E8009ECE823209F09BCE8F8980930B0132
:101D1000EEEFFFE7859194918B3F9C4D51F1E0E010
:101D2000F8E08091040190910501A0910601B09125
:101D30000701803B9440A105B105F1F480910B01AE
:101D400080FD1AC0EE3F8AE0F80789F587E797E73C
:101D500091838083809160008093900188E19BE073
:101D60000FB6F894A895809360000FBE9093600022
:101D700067CEEEEFFAE0D5CF808191818737974724
:101D800009F05ECEA8958091600088618093600024
:101D90008091900180936000EE3F2AE0F20789F085
:101DA0008091FE0A9091FF0A9183808349CE8081C1
:101DB00091818737980751F29093FF0A8093FE0A2A
:101DC000C5CF1092FF0A1092FE0A3ACE0E944C072D
:101DD000DC0112960D911C910115110509F4E8CE54
:101DE000D801ED91FC910190F081E02DBE016B5E78
:101DF0007F4FC8010995811123CEF8010085118517
:101E0000EBCF181619060CF41BCED2CEF1E0FF1260
:101E1000BECE62EF75E004CFEF92FF920F931F9357
:101E2000CF93DF93F82E192FE62E042F81E0860F33
:101E3000880F0E94C40783E00E94C407CF2DD12FD2
:101E4000EC0EFD2EF11CCE15DF05B9F007FF13C017
:101E5000FE0184910E94C407182F80E00E94C407ED
:101E6000812321968111EFCFDF91CF911F910F91A7
:101E7000FF90EF9008958881EDCF81E0F5CFEAE300
:101E8000F6E01382128288EE93E0A0E0B0E0848353
:101E90009583A683B78380E291E0918380838FEF5F
:101EA0009FEF95878487E2E9F6E01382128282E34E
:101EB00091E09183808384E090E0909391068093F9
:101EC000900620E130E030938F0620938E069093A9
:101ED0008D0680938C068CE190E090938B06809326
:101EE0008A060895CF93DF9300D000D0CDB7DEB738
:101EF000789484B5826084BD84B5816084BD85B5E5
:101F0000826085BD85B5816085BD80916E008160F0
:101F100080936E0010928100809181008260809396
:101F20008100809181008160809381008091800098
:101F30008160809380008091910082608093910005
:101F400080919100816080939100809190008160E8
:101F5000809390008091C10084608093C100809143
:101F6000C10082608093C1008091C1008160809334
:101F7000C1008091C30081608093C3008091C00044
:101F800082608093C0008091C20081608093C20013
:101F900080917A00846080937A0080917A008260D8
:101FA00080937A0080917A00816080937A0080919A
:101FB0007A00806880937A0010923902109293011F
:101FC000109292018091D70081608093D70080EABF
:101FD0008093D80089B5806189BD89B5826089BD4B
:101FE00009B400FEFDCF61E070E080E090E00E9467
:101FF00085078091D8008F7C80618093D800809184
:10200000E000807F8093E0008091E1008E7E8093ED
:10201000E1008DE08093E200559A209A81EC809354
:102020007C0085B1806F85B984B1877E84B984B125
:10203000876E84B95E9A5F988AB1806D8AB9769A04
:102040006E9881B3806F81BB899880B38D7080BB9F
:1020500080E58CBD81E08DBD85E090E00E948B091C
:102060005F9A85E090E00E948B095E985C98E1EDB4
:10207000F6E08EED96E024912EBD00000DB407FE33
:10208000FDCF31968E179F07B1F75C9A81E8809358
:102090006400809165008160809365000E94890AD8
:1020A00080E80E947E0A8823A9F05C9885EA8EBDAC
:1020B00000000DB407FEFDCF5C9A2E982F982D9846
:1020C0008091640080628093640081E083BF889582
:1020D00013BEFCCF84E00E947E0A882309F448C026
:1020E0002D9884E80E947E0A8823E1F00E948909E5
:1020F00088EC90E00E948B092F9882E090E00E948B
:1021000089158F3F29F06FEF82E090E00E949115D2
:1021100084EF91E00E948B092F9A84E80E947E0A46
:102120008111FBCF84E10E947E0A8823E1F00E94A6
:10213000890988EC90E00E948B092E9882E090E05B
:102140000E948915882329F060E082E090E00E94D7
:10215000911584EF91E00E948B092E9A84E10E94F0
:102160007E0A8111FBCF88EC90E00E948B09B2CFF0
:102170000E94890982E090E00E947C0B882309F488
:102180008EC03E9A3F9A81E090E00E947C0B182F0F
:10219000147081FF10C011112E9821EF3FEF3A8388
:1021A000298380E40E947E0A882309F47BC02E9A4A
:1021B0002F9A0E94890982E390E00E948B090E9475
:1021C00090098111F8CF80E180930C0190E080E0CC
:1021D0000E9489158093170281E090E00E94891582
:1021E000809318028FEF9FEF9093470680934606E7
:1021F00071EAE72E71E0F72EE5E0CE2EE2E0DE2E6A
:1022000048E150E05A83498380918E0690918F0671
:10221000E981FA818E0F9F1FF601819391936F01DF
:1022200001E010E00E947E0BF801EE0FFF1FEE0DA3
:10223000FF1D918380830F5F1F4F0A30110591F7B7
:1022400029813A81245F3F4F3A83298334E1E30EA9
:10225000F11C49815A8144355105B1F60E94B807F5
:102260006093990170939A0180939B0190939C01D4
:1022700052E0652E712C0E949009809394010E9477
:10228000B80780919701882309F472C010929701D2
:1022900080E090E0892B79F30E940000ECCF3E981B
:1022A0003F9871CF112339F049815A81443051054B
:1022B00011F42E9A2F9881E00E94020700E128E590
:1022C00041E256E069817A8184E190E00E94FA055A
:1022D0000E94890A8FE090E00E948B0989819A818F
:1022E00001969A838983499709F05BCF112311F0F6
:1022F0002F9A2D9880E991E00E948B090E9489090C
:1023000081E090E00E947C0B80FF55CF8AE090E056
:102310000E947C0B9FEF980F9E3F08F04CCF22E36A
:1023200030E030931C0220931B0228E330E030930E
:102330001A0220931902EBE0F0E0FA83E983682F98
:1023400082E996E00E94140A89819A810E947C0B9E
:1023500029813A812F5F3F4F3A832983213131050B
:1023600071F70E94890A88EE93E00E948B0923CFBF
:1023700080919801562F581B852F90910C01591769
:1023800048F48F5F891708F083CF81E083BF889579
:1023900013BE7ECF21E02093970160939801809136
:1023A00095019091960101969093960180939501E5
:1023B00080912102909122028130910509F4D1C0CF
:1023C00008F483C0029709F063CFC0901E02D0903A
:1023D0001F02DA82C98280911702909118028C152F
:1023E0009D0504F5D0921802C092170220931D0299
:1023F000198190E080E00E948915811729F0612FF2
:1024000090E080E00E949115D0901802D98281E07E
:1024100090E00E948915D81629F06D2D81E090E09A
:102420000E9491150E94FF0983E290E090931C02A4
:1024300080931B0210921A02109219028BE491E011
:102440000E94650B8AE090E090931C0280931B022F
:1024500084E190E090931A028093190280911D020A
:10246000882309F4ADC286E591E00E94650B1092C5
:102470001D0282E3E82EF12CF0921C02E0921B0276
:102480008EE190E090931A028093190280911E02CF
:1024900090911F020E94720B8AE090E090931C02C0
:1024A00080931B02F0921A02E092190284E791E0F5
:1024B0000E94650B0E94890A88E00E947E0A882398
:1024C00009F4E6CE0E94C30BE3CE88E00E947E0AA8
:1024D000882341F081E090E09093220280932102D2
:1024E0000E94C30B0E94FF0900E420E84EED56E075
:1024F00070E060E090E080E00E94FA05E0E1F0E04A
:10250000F0931C02E0931B0283E290E090931A0286
:10251000809319028AE391E00E94650B8FE090E0BE
:1025200090931C0280931B0282E390E090931A0226
:10253000809319028AE591E00E94650B6091170271
:1025400070911802072E000C880B990B97FF03C09F
:102550000E94440B03C04AE00E94F60A0E94890AC6
:1025600097CE80912002811126C280E20E947E0ACD
:10257000882309F4B0C084EF9FEF0E948C0A80E1A9
:102580000E947E0A882381F10E94B8074B015C01FA
:102590000E94B8078B019C0140910F0250911002DC
:1025A000609111027091120280919D0190919E01A3
:1025B000A0919F01B091A00188579C4EAF4FBF4F93
:1025C00075016401C41AD50AE60AF70AB701A60123
:1025D000081719072A073B0708F086C04639510536
:1025E0006105710508F086C04091130250911402F4
:1025F000609115027091160280910D0190910E016B
:10260000A0910F01B0911001481759076A077B0785
:1026100018F081E0809320020E94FF0995E0A92E26
:1026200092E0B92E21EA422E21E0522E6201912C35
:10263000812CF501E080F180209190063091910687
:10264000280D391D3C832B8340918C0650918D06BB
:102650005A83498320908A0630908B0624173507C9
:10266000C9F42E143F04B1F4F601808191818530C4
:10267000910509F491C00CF07BC08E3FFFEF9F07DE
:1026800009F49FC0019709F4A3C02FEF3FEFF601B3
:1026900031832083F601808191818530910509F491
:1026A00080C10CF0ACC08F3F980709F4C0C00CE0AB
:1026B0002CE046E25BE08130910539F0029609F0AA
:1026C00075C10CE02CE04EE65BE0B7018B819C818C
:1026D0000E94FA05CCC080E40E947E0A882309F497
:1026E0004ECF8CE090E049CF4A3F5105610571051E
:1026F00008F47ACF01EA11E025E032E03A83298339
:10270000E981FA81808191810C9797FF2CC044E385
:10271000C42ED12CD182C082F12CE12C0E947E0BE0
:10272000F701EE0FFF1FE00FF11F918380832FEF62
:10273000E21AF20A3AE0E316F10481F729813A81BC
:102740002E5F3F4F3A8329830C5E1F4F32E00530E6
:102750001307B1F680920F0290921002A09211021C
:10276000B092120241CFE981FA8191838083E6CF52
:102770008A309105B9F184369105D1F1069709F0B7
:1027800084CF0E94B80760939D0170939E0180934F
:102790009F019093A00179CF80910D0190910E013E
:1027A000A0910F01B091100188579C4EAF4FBF4FC1
:1027B00080930D0190930E01A0930F01B09310012F
:1027C00064CF22E030E030932202209321025DCFDB
:1027D00080911E0290911F02019690931F02809398
:1027E0001E0253CF80911E0290911F020A96F5CFD0
:1027F00080911E0290911F028C599F4FEECF0CE0EA
:102800002CE04EE05BE08A30910509F45ECF0CE0ED
:102810002CE046EF5AE08436910509F456CF06972E
:1028200009F0C4C00CE02CE04EE35BE04ECF30E496
:10283000E316F10428F4B7018B819C810E94CA063B
:10284000B701655F7F4F6034710520F48B819C81F7
:102850000E94CA064CE0B7018B819C810E94B0099E
:102860004CE0B7018B819C810B960E94B0094CE033
:10287000840E911C52E0C50ED11C88E78816910485
:1028800009F0D7CE94E1490E511CE2E0AE0EB11C26
:10289000FFE0AF16F2E0BF0609F0C8CE0CE02CE076
:1028A00046E85BE0B10189819A810E94FA050E94A5
:1028B000B8070091990110919A0120919B013091E4
:1028C0009C01601B710B820B930B6093130270933E
:1028D00014028093150290931602C0901E02D090AD
:1028E0001F02DA82C982960161E070E02A30310568
:1028F00074F062E070E0243631054CF063E070E083
:1029000048EEC41643E0D40614F065E070E02AEF08
:1029100026038001279F100D1124862F880F680F32
:10292000660FC80184589F4F0E94DA0902581F4F52
:1029300010931C0200931B0270921A0260921902FB
:1029400089819A810E94720B60910D0170910E0134
:1029500080910F01909110010091130210911402C7
:102960002091150230911602601B710B820B930BA4
:1029700028EE33E040E050E00E94D11569016CE0A0
:1029800082E090E00E94DA0970921C0260921B02C1
:1029900070921A0260921902B601DD0C880B990B35
:1029A000D5CD0CE02CE046E55BE08FCE0CE02CE0D2
:1029B0004EED5AE08ACE709222026092210268CCDB
:1029C00087E691E00E94650B54CD8F929F92AF9263
:1029D000BF92CF92DF92EF92FF92CF93DF93EC0101
:1029E000688179818A819B816115710581059105D5
:1029F00021F464E279ED8BE597E02DE133EF41E0DE
:102A000050E00E949F1549015A019B01AC01A7EAC1
:102A1000B1E40E94BE156B017C01ACEEB4EFA501E0
:102A200094010E94CC15C60ED71EE81EF91EF7FEB3
:102A300006C081E0C81AD108E10880E8F80AC88217
:102A4000D982EA82FB82C701B6019F77DF91CF91DD
:102A5000FF90EF90DF90CF90BF90AF909F908F90BE
:102A600008958F929F92AF92BF92CF92DF92EF9292
:102A7000FF92609111017091120180911301909168
:102A80001401611571058105910521F464E279ED68
:102A90008BE597E02DE133EF41E050E00E949F1578
:102AA00049015A019B01AC01A7EAB1E40E94BE159D
:102AB0006B017C01ACEEB4EFA50194010E94CC1532
:102AC000C60ED71EE81EF91EF7FE06C081E0C81A22
:102AD000D108E10880E8F80AC0921101D0921201F1
:102AE000E0921301F0921401C701B6019F77FF90A5
:102AF000EF90DF90CF90BF90AF909F908F90089510
:102B0000609311017093120180931301909314014B
:102B10000895F999FECF92BD81BDF89A992780B5A5
:102B20000895262FF999FECF1FBA92BD81BD20BD11
:102B30000FB6F894FA9AF99A0FBE01960895052EE9
:102B400097FB1EF400940E94B61557FD07D00E9413
:102B5000D11507FC03D04EF40C94B6155095409552
:102B6000309521953F4F4F4F5F4F08959095809539
:102B7000709561957F4F8F4F9F4F08950E94F31579
:102B8000A59F900DB49F900DA49F800D911D1124C1
:102B90000895B7FF0C94BE150E94BE15821B930BBF
:102BA0000895A1E21A2EAA1BBB1BFD010DC0AA1F8E
:102BB000BB1FEE1FFF1FA217B307E407F50720F0A6
:102BC000A21BB30BE40BF50B661F771F881F991F21
:102BD0001A9469F760957095809590959B01AC016A
:102BE000BD01CF010895A29FB001B39FC001A39F73
:102BF000700D811D1124911DB29F700D811D112436
:102C0000911D0895EE0FFF1F0590F491E02D09949A
:042C1000F894FFCF66
:102C1400FFFFFFFF00E1000000000000103075001E
:102C2400000100000000C1808100000000000000DD
:102C34000809830829091E096F092D094B09000099
:102C44000000140A5608F30AF20A507265737320DE
:102C54004120746F2073746172740047616D652044
:102C64004F76657221004E65772048696768205366
:102C7400636F72653A200046696E616C2053636F1E
:102C840072653A005072657373204120746F20722C
:082C94006573746172740000A5
:00000001FF
